:100000000C94A2050C94BF050C94BF050C94BF057D
:100010000C94BF050C94BF050C94BF050C94BF0550
:100020000C94BF050C94BF050C94BF050C94BF0540
:100030000C94BF050C94BF050C94BF050C94DC2CEC
:100040000C94BF050C94BF050C94681C0C94D11C37
:100050000C94BF050C94BF050C94BF050C94BF0510
:100060000C94BF050C94BF050C94BF050C94BF0500
:100070000C94BF050C94BF050C94231D0C948C1D8F
:100080000C94BF050C9415190C94BF05541A5A1AF8
:100090005A1A5A1A5A1A5A1A5A1A5A1A46195A1AD5
:1000A0005A1A5A1A5A1A5A1A5A1A5A1A46195A1AC5
:1000B0005A1A5A1A5A1A5A1A5A1A5A1A52195A1AA9
:1000C0005A1A5A1A5A1A5A1A5A1A5A1A7E195A1A6D
:1000D0005A1A5A1A5A1A5A1A5A1A5A1A52195A1A89
:1000E0005A1A5A1A5A1A5A1A5A1A5A1A84195A1A47
:1000F0005A1A5A1A5A1A5A1A5A1A5A1A8A195A1A31
:100100005A1A5A1A5A1A5A1A5A1A5A1AA0195A1A0A
:100110005A1A5A1A5A1A5A1A5A1A5A1AD0195A1ACA
:100120005A1A5A1A5A1A5A1A5A1A5A1A90195A1AFA
:100130005A1A5A1A5A1A5A1A5A1A5A1AAE195A1ACC
:100140005A1A5A1A5A1A5A1A5A1A5A1AD3195A1A97
:100150005A1A5A1A5A1A5A1A5A1A5A1AD3195A1A87
:100160005A1A5A1A5A1A5A1A5A1A5A1AD3195A1A77
:100170005A1A5A1A5A1A5A1A5A1A5A1AD3195A1A67
:100180005A1A5A1A5A1A5A1A5A1A5A1ADC195A1A4E
:100190005A1A5A1A5A1A5A1A5A1A5A1A161A5A1A03
:1001A0005A1A5A1A5A1A5A1A5A1A5A1ADC195A1A2E
:1001B0005A1A5A1A5A1A5A1A5A1A5A1A161A5A1AE3
:1001C0005A1A5A1A5A1A5A1A5A1A5A1AF8195A1AF2
:1001D0005A1A5A1A5A1A5A1A5A1A5A1A1A1A5A1ABF
:1001E0005A1A5A1A5A1A5A1A5A1A5A1A1A1A5A1AAF
:1001F0005A1A5A1A5A1A5A1A5A1A5A1A301A5A1A89
:100200005A1A5A1A5A1A5A1A5A1A5A1A4E1A5A1A5A
:100210005A1A5A1A5A1A5A1A5A1A5A1A4E1A5A1A4A
:100220005A1A5A1A5A1A5A1A5A1A5A1A5A1A5A1A2E
:100230005A1A5A1A5A1A5A1A5A1A5A1A5A1A5A1A1E
:100240005A1A5A1A5A1A5A1A5A1A5A1A5A1A5A1A0E
:100250005A1A5A1A5A1A5A1A5A1A5A1A5A1A5A1AFE
:100260005A1A5A1A5A1A5A1A5A1A5A1A5A1A5A1AEE
:100270005A1A5A1A5A1A5A1A5A1A5A1A591A08212A
:100280000F210F210F210F210F210F210F210F21EE
:100290000F210F21631E631E631E631E631E631EF8
:1002A000631E631E631E631E0F210F210F210F218A
:1002B0000F210F210F210F210F210F210F210F21BE
:1002C0000F210F210F210F210F210F210F210F21AE
:1002D0000F210F210F210F210F210F210F210F219E
:1002E0000F210F218E1F0F210F210F210F210F2111
:1002F0000F210F210F210F210F21A81EBE1E0F213C
:100300000F210F210F21BE1E0F210F210F210F21C1
:100310000F210F218E1F0F210F21FE1E0F216C1F99
:100320000F210F218E1F6E616E00696E6600004006
:100330007A10F35A00A0724E18090010A5D4E800F4
:1003400000E87648170000E40B54020000CA9A3B0C
:10035000000000E1F5050000809698000000404292
:100360000F000000A0860100000010270000000020
:10037000E803000000006400000000000A00000024
:1003800000000100000000002C76D888DC674F08D0
:1003900023DFC1DFAE59E1B1B796E5E3E453C63AD6
:1003A000E651997696E8E6C28426EB898C9B62ED4D
:1003B000407C6FFCEFBC9C9F40F2BAA56FA5F49007
:1003C000055A2AF75C936B6CF9676DC11BFCE0E47E
:1003D0000D47FEF520E6B500D0ED902E03009435D4
:1003E00077050080841E080000204E0A000000C827
:1003F0000C333333330F986E12831141EF8D211478
:10040000893BE65516CFFEE6DB18D1844B381BF747
:100410007C1D901DA4BBE424203284725E228100E6
:10042000C9F124ECA1E53D272E2E2E2E2E2E2E2EA8
:100430002E2E2E2E2E2E2E2E2E2E2E2E2E2E2E2EDC
:100440002E2E2E2E2E2E2E2E2E2E2E2E2E2E2E2ECC
:100450002E2E2E2E2E2E2E2E2E2E2E2E2E2E2E0DDD
:100460000A00000000000000002E2E2E2E2E2E2E40
:100470002E2E2E2E2E2E2E2E2E2E2E2E2E2E2E2E9C
:100480002E2E2E2E2E2E2E2E2E2E2E2E2E2E2E2E8C
:100490002E2E2E2E2E2E2E2E2E2E2E2E2E2E2E2E7C
:1004A0000D0A00000000000000002E2E2020202059
:1004B000202020202020202020202020202020203C
:1004C000202020202020202020202020202020202C
:1004D0002020202020202020202020202020202E0E
:1004E0002E0D0A00000000000000002E2E2020200B
:1004F00020202020202020202020202020202020FC
:1005000020202020202020202020202020202020EB
:1005100020202020202020202020202020202020DB
:100520002E2E0D0A00000000000000002E2E2020BC
:100530002020202020202020202020205F5F5F5FBF
:100540005F2020202020202020202020202020206C
:10055000202020202020202020202020202020209B
:10056000202E2E0D0A00000000000000002E2E207C
:100570002020202020202020202020202F205F5FEE
:100580005F5F7C2020202020202020202020202091
:10059000202020202020202020202020202020205B
:1005A00020202E2E0D0A00000000000000002E2E3C
:1005B0002020202020202020202020207C20285F98
:1005C0005F5F20205F205F5F2020205F5F205F2033
:1005D000205F5F5F205F5F5F2020202020202020A1
:1005E0002020202E2E0D0A00000000000000002E0A
:1005F0002E202020202020202020202020205C5F72
:100600005F5F205C7C20275F205C202F205F6020C4
:100610007C2F205F5F2F205F205C20202020202067
:10062000202020202E2E0D0A0000000000000000D7
:100630002E2E202020202020202020202020205F5F
:100640005F5F5F29207C207C5F29207C20285F7CE5
:10065000207C20285F7C20205F5F2F20202020200E
:1006600020202020202E2E0D0A0000000000000077
:10067000002E2E2020202020202020202020207C22
:100680005F5F5F5F5F2F7C202E5F5F2F205C5F5F6F
:100690002C5F7C5C5F5F5F5C5F5F5F7C2020202065
:1006A0002020202020202E2E0D0A00000000000017
:1006B00000002E2E2020202020202020205F20201F
:1006C000202020205F205F7C207C205F5F5F5F5FB9
:1006D0005F5F20202020202020205F20202020205D
:1006E000202020202020202E2E0D0A0000000000B7
:1006F0000000002E2E20202020202020207C207C86
:1007000020202020285F7C5F295F7C7C5F5F202089
:10071000205F5F7C2020202020207C207C20202047
:1007200020202020202020202E2E0D0A0000000056
:10073000000000002E2E20202020202020207C20C1
:100740007C20202020205F205F205F205F5F207CB6
:10075000207C205F5F5F20205F5F5F7C207C5F5F8D
:100760002020202020202020202E2E0D0A000000F6
:1007700000000000002E2E20202020202020207CA1
:10078000207C202020207C207C207C20275F205C77
:100790007C207C2F205F205C2F205F5F7C20275FE8
:1007A000205C20202020202020202E2E0D0A00005A
:1007B0000000000000002E2E2020202020202020DD
:1007C0007C207C5F5F5F5F7C207C207C207C207CA9
:1007D000207C207C20205F5F2F20285F5F7C207C96
:1007E000207C207C202020202020202E2E0D0A007E
:1007F000000000000000002E2E20202020202020BD
:10080000207C5F5F5F5F5F5F7C5F7C5F7C5F7C20E5
:100810007C5F7C5F7C5C5F5F5F7C5C5F5F5F7C5F5D
:100820007C207C5F7C202020202020202E2E0D0A82
:1008300000000000000000002E2E2020202020209C
:1008400020202020202020202020202020202020A8
:100850002020202020202020202020202020202098
:10086000202020202020202020202020202E2E0D7F
:100870000A00000000000000002E2E202020202072
:100880002020202020202020202020202020202068
:100890002020202020202020202020202020202058
:1008A00020202020202020202020202020202E2E2C
:1008B0000D0A00000000000000002E2E2020202045
:1008C0005F5F5F5F5F205F5F5F5F20205F202020B2
:1008D000205F20205F5F202020205F5F5F5F20205F
:1008E000205F5F5F2020205F5F5F20202020202E80
:1008F0002E0D0A00000000000000002E2E202020F7
:100900007C5F2020205F2F205F5F205C7C207C208C
:10091000207C207C205C205C20202F202F5F207CEE
:10092000202F205F205C202F205F205C20202020B3
:100930002E2E0D0A00000000000000002E2E2020A8
:100940002020207C207C7C207C20207C207C207C23
:1009500020207C207C20205C205C2F202F207C20ED
:100960007C7C207C207C207C207C207C207C2020A7
:10097000202E2E0D0A00000000000000002E2E2068
:100980002020205F7C207C7C207C5F5F7C207C2082
:100990007C5F5F7C207C2020205C20202F20207C1E
:1009A000207C7C207C5F7C207C207C5F7C207C20E9
:1009B00020202E2E0D0A00000000000000002E2E28
:1009C0002020207C5F5F5F5F5F5C5F5F5F5F2F2049
:1009D0005C5F5F5F5F2F20202020205C2F20202085
:1009E0007C5F285F295F5F5F285F295F5F5F2F2043
:1009F0002020202E2E0D0A00000000000000002EF6
:100A00002E202020202020202020202020202020D8
:100A100020202020202020202020202020202020D6
:100A200020202020202020202020202020202020C6
:100A3000202020202E2E0D0A0000000000000000C3
:100A40002E2E20202020202020202020202020208A
:100A50002020202020202020202020202020202096
:100A60002020202020202020202020202020202086
:100A700020202020202E2E0D0A0000000000000063
:100A8000002E2E2E2E2E2E2E2E2E2E2E2E2E2E2EB4
:100A90002E2E2E2E2E2E2E2E2E2E2E2E2E2E2E2E76
:100AA0002E2E2E2E2E2E2E2E2E2E2E2E2E2E2E2E66
:100AB0002E2E2E2E2E2E2E2E0D0A000000000000AF
:100AC00000002E2E2E2E2E2E2E2E2E2E2E2E2E2EA2
:100AD0002E2E2E2E2E2E2E2E2E2E2E2E2E2E2E2E36
:100AE0002E2E2E2E2E2E2E2E2E2E2E2E2E2E2E2E26
:100AF0002E2E2E2E2E2E2E2E2E0D0A000000000041
:100B00000000000D0A0000000000000000000000CE
:100B100000000000000000000000000000000000D5
:100B200000000000000000000000000000000000C5
:100B300000000000000000000000000000000000B5
:100B40000000000011241FBECFEFD0E1DEBFCDBFFB
:100B50001BE0A0E0B1E0E0E7FAE602C005900D92EC
:100B6000A236B107D9F72FE0A2E6BBE001C01D9283
:100B7000A135B207E1F70E9450120C9436350C945F
:100B80000000AF92BF92CF92DF92EF92FF920F934D
:100B90001F93CF93DF9300D000D000D0CDB7DEB746
:100BA00016E0E2E6FBE0DE01119601900D921A9547
:100BB000E1F700E0098110E01A81B0E0BB81A0E01C
:100BC000AC81F0E0FD81E0E0EE81202F312F4B2F52
:100BD0005A2F6F2F7E2FA22EB32EC42ED52EE62E87
:100BE000F72E082F192F2A2D3B2D4C2D5D2D6E2D04
:100BF0007F2D802F912F26960FB6F894DEBF0FBE63
:100C0000CDBFDF91CF911F910F91FF90EF90DF90BB
:100C1000CF90BF90AF900895AF92BF92CF92DF92E6
:100C2000EF92FF920F931F93CF93DF9300D000D0EA
:100C300000D0CDB7DEB716E0E8E6FBE0DE011196A6
:100C400001900D921A95E1F700E0098110E01A81F8
:100C5000B0E0BB81A0E0AC81F0E0FD81E0E0EE819E
:100C6000202F312F4B2F5A2F6F2F7E2FA22EB32ED6
:100C7000C42ED52EE62EF72E082F192F2A2D3B2D08
:100C80004C2D5D2D6E2D7F2D802F912F26960FB62A
:100C9000F894DEBF0FBECDBFDF91CF911F910F91B2
:100CA000FF90EF90DF90CF90BF90AF900895CF93DB
:100CB000DF93CDB7DEB70E9457210000DF91CF91BF
:100CC0000895CF93DF93CDB7DEB78CE79CE00E9409
:100CD00010230E947D070000DF91CF910895CF93EC
:100CE000DF93CDB7DEB761E071E080E091E00E9474
:100CF0008E2A0000DF91CF910895CF93DF93CDB777
:100D0000DEB78091820C882F90E0292F2F938F934C
:100D100087EE91E0892F8F9387EE91E08F930E9469
:100D20002C210F900F900F900F908AEE91E0892F59
:100D30008F938AEE91E08F930E942C210F900F9059
:100D40008091830C882F90E0292F2F938F9387EE2B
:100D500091E0892F8F9387EE91E08F930E942C2151
:100D60000F900F900F900F908AEE91E0892F8F9344
:100D70008AEE91E08F930E942C210F900F9080912A
:100D8000840C882F90E0292F2F938F9387EE91E08A
:100D9000892F8F9387EE91E08F930E942C210F90E3
:100DA0000F900F900F908AEE91E0892F8F938AEE2B
:100DB00091E08F930E942C210F900F908091850CD1
:100DC000882F90E0292F2F938F9387EE91E0892F22
:100DD0008F9387EE91E08F930E942C210F900F90BC
:100DE0000F900F908AEE91E0892F8F938AEE91E019
:100DF0008F930E942C210F900F908091860C882F4A
:100E000090E0292F2F938F9387EE91E0892F8F9376
:100E100087EE91E08F930E942C210F900F900F90FE
:100E20000F908AEE91E0892F8F938AEE91E08F9355
:100E30000E942C210F900F908091870C882F90E0BA
:100E4000292F2F938F9387EE91E0892F8F9387EE31
:100E500091E08F930E942C210F900F900F900F9094
:100E60008AEE91E0892F8F938AEE91E08F930E9412
:100E70002C210F900F908091880C882F90E0292FC3
:100E80002F938F9387EE91E0892F8F9387EE91E0D8
:100E90008F930E942C210F900F900F900F908AEE4D
:100EA00091E0892F8F938AEE91E08F930E942C21FD
:100EB0000F900F908091890C882F90E0292F2F930D
:100EC0008F9387EE91E0892F8F9387EE91E08F9338
:100ED0000E942C210F900F900F900F908AEE91E0BE
:100EE000892F8F938AEE91E08F930E942C210F908F
:100EF0000F900000DF91CF910895CF93DF9300D042
:100F000000D01F92CDB7DEB780917D0C90917E0C02
:100F1000A0917F0CB091800C0597A105B10509F057
:100F20005DC08091820C8D30D1F48091830C8983D7
:100F300089810E94E3108981882F90E0292F2F93C7
:100F40008F938DEE91E0892F8F938DEE91E08F93AB
:100F50000E942C210F900F900F900F903FC0809116
:100F6000820C8F30D9F58091830C8A838091840C18
:100F70008B838091850C8C838091860C8D832D8151
:100F80004C816B818A810E94E7288D81682F70E0F7
:100F90008C81482F50E08B81282F30E08A81882F68
:100FA00090E0E72FEF936F93652F6F934F93432F4D
:100FB0004F932F93292F2F938F9386EF91E0892FB3
:100FC0008F9386EF91E08F930E942C218DB79EB76F
:100FD0000A960FB6F894DEBF0FBECDBF00000F908B
:100FE0000F900F900F900F90DF91CF910895CF93B6
:100FF000DF93CDB7DEB728970FB6F894DEBF0FBEEC
:10100000CDBF98878F8381E08C831B828F819885E9
:101010009A8389832BC089819A81FC0180818032E7
:1010200039F489819A81FC01108281E08C8319C096
:101030008C818823B1F08B81883088F48B81882F54
:1010400090E0880F991F8259944F29813A81FC01C1
:10105000318320838B818F5F8B831C8202C082E06F
:101060003BC089819A8101969A83898389819A817B
:10107000FC018081882379F68B81882361F181E1ED
:1010800091E09E838D8320C08D819E81FC01208113
:10109000318180916E0B90916F0BB9010E94553494
:1010A000892B69F48D819E81FC01228133818B81A2
:1010B000882F90E06EE67BE0F90109950DC08D81E7
:1010C0009E8106969E838D838D819E81FC01808109
:1010D0009181892BC9F681E028960FB6F894DEBF7E
:1010E0000FBECDBFDF91CF910895CF93DF9300D096
:1010F000CDB7DEB763C08091800B9091810B0E94C9
:101100003C1B898389810E94C61B89818D3019F01F
:1011100089818A3079F58091C20B882331F18091E1
:10112000C20B882F90E08E57944FFC011082809163
:10113000C20B8F5F8093C20B82E89BE00E94F7078F
:101140008A831092C20B8A81082E000C990B880F9B
:10115000991F895F9E4FFC01808191810E94EF1B46
:1011600082EA98E00E94EF1B29C085EA98E00E947D
:10117000EF1B24C08981883019F089818F3751F4A1
:101180008091C20B8823D1F08091C20B8150809353
:10119000C20B14C08091C20B882F90E08E57944FE1
:1011A0002981FC0120838091C20B8F5F8093C20B49
:1011B0008091C20B813410F01092C20B8091800B91
:1011C0009091810B0E94D61A982F81E0892788235D
:1011D00009F091CF00000F900F90DF91CF9108950B
:1011E000CF93DF93CDB7DEB70E948B1B0E945D1CAF
:1011F0009093810B8093800B40E450E060E070E0BE
:1012000082E89BE00E944E341092C20B8AEA98E07A
:101210000E94EF1B82EA98E00E94EF1B0E94C01020
:101220000000DF91CF910895CF93DF93CDB7DEB764
:101230006CE971E08BE991E00E948E2A0000DF9159
:10124000CF910895CF93DF9300D000D000D0CDB7D9
:10125000DEB79C838B837E836D8381EC98E00E9454
:10126000EF1B87ED98E00E94EF1B81E191E09A83EC
:10127000898317C089819A81FC01808191810E94B4
:10128000EF1B89819A81FC01848195810E94EF1B6B
:101290008CEE98E00E94EF1B89819A8106969A83D2
:1012A000898389819A81FC0180819181892B11F741
:1012B00080E090E026960FB6F894DEBF0FBECDBF5B
:1012C000DF91CF910895CF93DF93CDB7DEB7279706
:1012D0000FB6F894DEBF0FBECDBF9D838C837F8396
:1012E0006E838C819D8103971CF483E090E040C065
:1012F0008C819D8104971CF082E090E039C08E8142
:101300009F810296FC01808191810E944D338983E7
:101310008981843018F084E090E02AC08E819F811A
:101320000496FC01808191810E944D339B838A83C6
:101330008A819B8169810E9474128981882F90E043
:101340002B812F932A812F93292F2F938F938FEE09
:1013500098E0892F8F938FEE98E08F930E942C2135
:101360000F900F900F900F900F900F9080E090E0F3
:1013700027960FB6F894DEBF0FBECDBFDF91CF9199
:101380000895CF93DF93CDB7DEB7E2970FB6F89409
:10139000DEBF0FBECDBF98AB8FA77AAB69AB89A973
:1013A0009AA90296FC01808191816BE079E00E940C
:1013B0005534892B29F58FA598A903971CF082E055
:1013C00090E0B4C00E94BA12292F2F938F9382E12C
:1013D00099E0892F8F9382E199E08F93CE01029655
:1013E000292F2F938F930E94B6340F900F900F9058
:1013F0000F900F900F90CE0102960E94EF1B96C0A7
:101400008FA598A903971CF483E090E08FC08FA567
:1014100098A904971CF082E090E088C089A99AA955
:101420000496FC01808191810E944D3389838981DA
:10143000823018F084E090E079C089A99AA90296D8
:10144000FC018081918165E279E00E945534892B0D
:1014500071F589810E9491129C018981882F90E009
:10146000432F4F932F93292F2F938F9389E299E046
:10147000892F8F9389E299E08F93CE010796292FC8
:101480002F938F930E94B6348DB79EB708960FB6F0
:10149000F894DEBF0FBECDBFCE0107960E945E342A
:1014A000282FCE010796622F0E940E1C3DC089A9ED
:1014B0009AA90296FC018081918165E379E00E94FE
:1014C0005534892B71F589810E94A5129C0189816F
:1014D000882F90E0432F4F932F93292F2F938F9393
:1014E0008DE399E0892F8F938DE399E08F93CE015F
:1014F0004B96292F2F938F930E94B6348DB79EB7AA
:1015000008960FB6F894DEBF0FBECDBFCE014B9646
:101510000E945E34282FCE014B96622F0E940E1C33
:1015200003C084E090E002C080E090E0E2960FB655
:10153000F894DEBF0FBECDBFDF91CF910895CF935A
:10154000DF93CDB7DEB727970FB6F894DEBF0FBE97
:10155000CDBF9D838C837F836E838C819D81039718
:101560001CF483E090E041C08C819D8104971CF0C5
:1015700082E090E03AC08E819F810296FC018081DA
:1015800091810E944D3389838981843018F084E0F1
:1015900090E02BC08E819F810496FC018081918117
:1015A0000E944D339B838A838A819B81BC01898100
:1015B0000E94DD138981882F90E02B812F932A814F
:1015C0002F93292F2F938F938CE499E0892F8F935A
:1015D0008CE499E08F930E942C210F900F900F9034
:1015E0000F900F900F9080E090E027960FB6F89440
:1015F000DEBF0FBECDBFDF91CF910895CF93DF93B4
:1016000000D000D01F92CDB7DEB79B838A837D8345
:101610006C838A819B8102971CF483E090E01BC05D
:101620008A819B8103971CF082E090E014C08C813A
:101630009D810296FC01808191810E944D338983B6
:101640008981843018F084E090E005C089810E948F
:10165000C51280E090E00F900F900F900F900F90C8
:10166000DF91CF910895CF93DF9300D000D000D0C9
:10167000CDB7DEB79C838B837E836D838B819C810A
:1016800002971CF483E090E040C08B819C8103971B
:101690001CF082E090E039C08D819E810296FC01B1
:1016A000808191816BE679E00E945534892BC9F4E1
:1016B000198206C089810E94E61289818F5F898321
:1016C00089818330B8F38DE699E0892F8F938DE679
:1016D00099E08F930E942C210F900F9080E090E072
:1016E00014C08D819E810296FC01808191810E94AF
:1016F0004D338A838A81843018F084E090E005C0FD
:101700008A810E94E61280E090E026960FB6F89457
:10171000DEBF0FBECDBFDF91CF910895CF93DF9392
:1017200000D000D01F92CDB7DEB79B838A837D8324
:101730006C838A819B8102971CF483E090E025C032
:101740008A819B8103971CF082E090E01EC08C810F
:101750009D810296FC01808191810E944D33898395
:101760008981843018F084E090E00FC08981880F6F
:101770000E9408138981880F0E94E6128981880FD0
:101780008F5F0E94E61280E090E00F900F900F9024
:101790000F900F90DF91CF910895CF93DF9300D0FA
:1017A00000D01F92CDB7DEB79B838A837D836C8385
:1017B0008A819B8102971CF483E090E01CC08A819F
:1017C0009B8103971CF082E090E015C08C819D8185
:1017D0000296FC01808191810E944D338983898129
:1017E000843018F084E090E006C08981880F0E9460
:1017F000401380E090E00F900F900F900F900F90AB
:10180000DF91CF910895CF93DF9300D000D0CDB773
:10181000DEB79A8389837C836B8389819A8102975F
:101820001CF082E090E004C00E94FA1380E090E097
:101830000F900F900F900F90DF91CF910895CF935D
:10184000DF9300D000D0CDB7DEB79A8389837C8345
:101850006B8389819A8102971CF082E090E004C03A
:101860000E94521580E090E00F900F900F900F9023
:10187000DF91CF910895CF93DF9300D000D0CDB703
:10188000DEB79A8389837C836B8389819A810297EF
:101890001CF082E090E004C00E945D1580E090E0C2
:1018A0000F900F900F900F90DF91CF910895CF93ED
:1018B000DF93CDB7DEB728970FB6F894DEBF0FBE23
:1018C000CDBF9E838D8378876F838D819E810497A2
:1018D0001CF483E090E032C08D819E8105971CF05E
:1018E00082E090E02BC08F8198850496FC01808176
:1018F00091810E944D3389838F8198850296FC01E6
:10190000808191810E944D338A838F8198850696CC
:10191000FC01808191810E944D339C838B838A815D
:10192000843018F084E090E009C08B819C81AC0188
:1019300069818A810E94611380E090E028960FB649
:10194000F894DEBF0FBECDBFDF91CF910895CF9346
:10195000DF93CDB7DEB727970FB6F894DEBF0FBE83
:10196000CDBF9D838C837F836E838C819D81029705
:101970001CF483E090E036C08C819D8103971CF0BD
:1019800082E090E02FC08E819F810296FC018081D1
:1019900091810E944D3389838981833018F084E0DE
:1019A00090E020C089810E94C8139B838A8389812B
:1019B000882F90E02B812F932A812F93292F2F930B
:1019C0008F9384E899E0892F8F9384E899E08F932F
:1019D0000E942C210F900F900F900F900F900F905E
:1019E00080E090E027960FB6F894DEBF0FBECDBF23
:1019F000DF91CF910895CF93DF93CDB7DEB72897CE
:101A00000FB6F894DEBF0FBECDBF9E838D8378875F
:101A10006F838D819E8105971CF483E090E033C035
:101A20008D819E8106971CF082E090E02CC08F8112
:101A300098850296FC01808191810E944D338983B3
:101A40008F8198850496FC01808191810E944D339D
:101A50008A838F8198850696FC01808191810E94FE
:101A60004D338B838F8198850896FC01808191810D
:101A70000E944D338C832C814B816A8189810E9425
:101A8000E72880E090E028960FB6F894DEBF0FBEFE
:101A9000CDBFDF91CF910895CF93DF93CDB7DEB760
:101AA00028970FB6F894DEBF0FBECDBF9E838D83FF
:101AB00078876F838D819E8102971CF082E090E091
:101AC00033C00E943E29DC01CB0189839A83AB831A
:101AD000BC838C81682F70E08B81482F50E08A8115
:101AE000282F30E08981882F90E0E72FEF936F93C4
:101AF000652F6F934F93432F4F932F93292F2F933E
:101B00008F9380EA99E0892F8F9380EA99E08F93F1
:101B10000E942C218DB79EB70A960FB6F894DEBFAF
:101B20000FBECDBF80E090E028960FB6F894DEBFE0
:101B30000FBECDBFDF91CF910895CF93DF9300D03B
:101B400000D01F92CDB7DEB79B838A837D836C83E1
:101B50008A819B8102971CF483E090E030C08A81E7
:101B60009B8103971CF082E090E029C08C819D81CD
:101B70000296FC01808191810E944D338983898185
:101B8000853610F084E6898389810E94E3108C8178
:101B90009D810296FC0180819181292F2F938F9343
:101BA00088ED99E0892F8F9388ED99E08F930E94BB
:101BB0002C210F900F900F900F9080E090E00F90ED
:101BC0000F900F900F900F90DF91CF910895CF93CA
:101BD000DF9300D000D01F92CDB7DEB79B838A83FE
:101BE0007D836C838A819B8102971CF082E090E068
:101BF00018C00E94F91089838981882F90E0292FCD
:101C00002F938F938AEF99E0892F8F938AEF99E032
:101C10008F930E942C210F900F900F900F9080E0D7
:101C200090E00F900F900F900F900F90DF91CF9159
:101C30000895AF92BF92CF92DF92EF92FF920F93EF
:101C40001F93CF93DF93CDB7DEB7A4970FB6F89469
:101C5000DEBF0FBECDBF9AA389A37CA36BA389A1CE
:101C60009AA102971CF082E090E090C00E94C1050A
:101C7000A22EB32EC42ED52EE62EF72E082F192F06
:101C80002A2D3B2D4C2D5D2D6E2D7F2D802F912FDC
:101C900029833A834B835C836D837E830E940C0689
:101CA000A22EB32EC42ED52EE62EF72E082F192FD6
:101CB0002A2D3B2D4C2D5D2D6E2D7F2D802F912FAC
:101CC0002F83388749875A876B877C874D815E8150
:101CD0002B813C8189819A81652F6F934F93432F8C
:101CE0004F932F93292F2F938F938AE19AE0892F77
:101CF0008F938AE19AE08F93CE010D96292F2F932F
:101D00008F930E94B6348DB79EB70A960FB6F8949B
:101D1000DEBF0FBECDBFCE010D960E945E34282FD0
:101D2000CE010D96622F0E940E1C4B855C85298585
:101D30003A858F819885652F6F934F93432F4F93EB
:101D40002F93292F2F938F9383E39AE0892F8F93DB
:101D500083E39AE08F93CE010D96292F2F938F93D3
:101D60000E94B6348DB79EB70A960FB6F894DEBFC0
:101D70000FBECDBFCE010D960E945E34282FCE013E
:101D80000D96622F0E940E1C80E090E0A4960FB684
:101D9000F894DEBF0FBECDBFDF91CF911F910F91A1
:101DA000FF90EF90DF90CF90BF90AF900895CF93CA
:101DB000DF9300D000D000D0CDB7DEB79C838B83FB
:101DC0007E836D838B819C8102971CF082E090E082
:101DD00017C00E946B129A8389838A818F938981AD
:101DE0008F9388E49AE0892F8F9388E49AE08F9309
:101DF0000E942C210F900F900F900F9080E090E0A8
:101E000026960FB6F894DEBF0FBECDBFDF91CF91FF
:101E10000895AF92BF92CF92DF92EF92FF920F930D
:101E20001F93CF93DF93CDB7DEB7AB970FB6F89480
:101E3000DEBF0FBECDBF99A788A77BA76AA719826F
:101E400030C089810E9491129C018981882F90E085
:101E5000432F4F932F93292F2F938F9389E299E04C
:101E6000892F8F9389E299E08F93CE010496292FD1
:101E70002F938F930E94B6348DB79EB708960FB6F6
:101E8000F894DEBF0FBECDBFCE0104960E945E3433
:101E9000282FCE010496622F0E940E1C89818F5F2D
:101EA00089838981843068F284E59AE0892F8F9351
:101EB00084E59AE08F930E942C210F900F900E944E
:101EC000FA130E943E29DC01CB01888F998FAA8FDB
:101ED000BB8F8B8D682F70E08A8D482F50E0898DE5
:101EE000282F30E0888D882F90E0E72FEF936F93B5
:101EF000652F6F934F93432F4F932F93292F2F933A
:101F00008F9380E69AE0892F8F9380E69AE08F93F3
:101F10000E942C218DB79EB70A960FB6F894DEBFAB
:101F20000FBECDBF0E94F910882F90E0292F2F936C
:101F30008F9381E89AE0892F8F9381E89AE08F93BD
:101F40000E942C210F900F900F900F900E94C105BE
:101F5000A22EB32EC42ED52EE62EF72E082F192F23
:101F60002A2D3B2D4C2D5D2D6E2D7F2D802F912FF9
:101F70002C8F3D8F4E8F5F8F68A379A30E940C0634
:101F8000A22EB32EC42ED52EE62EF72E082F192FF3
:101F90002A2D3B2D4C2D5D2D6E2D7F2D802F912FC9
:101FA0002AA33BA34CA35DA36EA37FA348A159A181
:101FB0002E8D3F8D8C8D9D8D652F6F934F93432F6D
:101FC0004F932F93292F2F938F938AE19AE0892F94
:101FD0008F938AE19AE08F93CE010496292F2F9355
:101FE0008F930E94B6348DB79EB70A960FB6F894B9
:101FF000DEBF0FBECDBFCE0104960E945E34282FF7
:10200000CE010496622F0E940E1C4EA15FA12CA14E
:102010003DA18AA19BA1652F6F934F93432F4F93AF
:102020002F93292F2F938F9383E39AE0892F8F93F8
:1020300083E39AE08F93CE010496292F2F938F93F9
:102040000E94B6348DB79EB70A960FB6F894DEBFDD
:102050000FBECDBFCE0104960E945E34282FCE0164
:102060000496622F0E940E1C0E946B129B838A832F
:102070008B818F938A818F9388E49AE0892F8F9345
:1020800088E49AE08F930E942C210F900F900F907C
:102090000F9080E090E0AB960FB6F894DEBF0FBED5
:1020A000CDBFDF91CF911F910F91FF90EF90DF9007
:1020B000CF90BF90AF900895CF93DF9300D000D022
:1020C000CDB7DEB79A8389837C836B8389819A81BC
:1020D00002971CF082E090E030C081E080938A0C8F
:1020E0008AE090E0A0E0B0E080938B0C90938C0CA1
:1020F000A0938D0CB0938E0C88E080938F0C81E0C0
:102100008093900C83E08093910C85E08093920CF7
:1021100087E08093930C89E08093940C8BE080930C
:10212000950C8DE08093960C8FE08093970C8AE855
:102130009CE00E94742280E090E00F900F900F903E
:102140000F90DF91CF910895CF93DF9300D000D00F
:10215000CDB7DEB79A8389837C836B8389819A812B
:1021600002971CF082E090E004C00E947D0680E0AF
:1021700090E00F900F900F900F90DF91CF91089506
:10218000CF93DF931F92CDB7DEB7198210C089813C
:10219000282F30E041E4429FC001439F900D11245D
:1021A000885D9B4F0E94331C89818F5F8983898161
:1021B0008C3168F382EA98E00E94EF1B00000F90D8
:1021C000DF91CF910895CF93DF931F92CDB7DEB704
:1021D00089838981853610F084E6898389810E940C
:1021E0008D1589818093C30B00000F90DF91CF91F3
:1021F0000895CF93DF93CDB7DEB78091C30BDF9106
:10220000CF910895CF93DF93CDB7DEB781E690E00D
:1022100021E630E0F90120812460FC01208382E680
:1022200090E022E630E0F90120812B7FFC01208341
:1022300081E690E021E630E0F90120812860FC0190
:10224000208382E690E022E630E0F9012081277FBA
:10225000FC0120838091C40B8E7F8093C40B8091FE
:10226000C40B8D7F8093C40B88EA9EE09093C60BCD
:102270008093C50B0E9442110E9464110000DF91FF
:10228000CF910895CF93DF93CDB7DEB782E690E08C
:1022900022E630E0F90120812460FC012083000067
:1022A000DF91CF910895CF93DF93CDB7DEB782E66C
:1022B00090E022E630E0F90120812B7FFC012083B1
:1022C0000000DF91CF910895CF93DF93CDB7DEB7B4
:1022D00082E690E022E630E0F90120812860FC01EE
:1022E00020830000DF91CF910895CF93DF93CDB786
:1022F000DEB782E690E022E630E0F9012081277F18
:10230000FC0120830000DF91CF910895CF93DF93EC
:10231000CDB7DEB78091C50B9091C60BFC018081D3
:10232000882F90E0009719F0019721F006C00E94D5
:10233000A11103C00E94091200000000DF91CF919B
:102340000895CF93DF93CDB7DEB78091C40B817032
:10235000882309F18091C40B81708823E1F080E02B
:102360000E94752A882309F450C08091C40B8E7F87
:102370008093C40B8091C40B8E7F8093C40B0E940A
:1023800042110E94641144EF51E060E070E080E08F
:102390000E94512A3AC08091C40B8170882301F5B4
:1023A0008091C40B81708823D9F480E00E94752A43
:1023B000882359F18091C40B81608093C40B809174
:1023C000C40B81608093C40B0E9453110E9475114D
:1023D00044EF51E060E070E080E00E94512A15C0B7
:1023E0008091C40B8E7F8093C40B8091C40B8E7F31
:1023F0008093C40B0E9442110E94641144EF51E08B
:1024000060E070E080E00E94512A0000DF91CF91EF
:102410000895CF93DF93CDB7DEB78091C40B817061
:102420008823A1F080E00E94752A882339F18091E9
:10243000C40B8E7F8093C40B0E94421148EB5BE07B
:1024400060E070E080E00E94512A18C08091C40BC7
:102450008170882399F080E00E94752A882371F0AA
:102460008091C40B81608093C40B0E94531144EF90
:1024700051E060E070E080E00E94512A0000DF91AE
:10248000CF910895CF93DF93CDB7DEB763EA71E0C4
:1024900082EA91E00E948E2A0000DF91CF91089598
:1024A000CF93DF93CDB7DEB70E94272A0E94F008B2
:1024B0000E9467150E947B150E9402110E94421221
:1024C0000E9414090E944F2C0E9457060E946F061A
:1024D0000E94592CFDCFCF93DF93CDB7DEB70E947A
:1024E0004221DF91CF910895CF93DF9300D01F92C7
:1024F000CDB7DEB79A8389836B838B81882F90E079
:102500000796880F991F87559E4F29813A81FC01B4
:102510003183208300000F900F900F90DF91CF91B7
:102520000895CF93DF931F92CDB7DEB7898389815A
:10253000882F90E0880F991F87559E4FFC0180815E
:1025400091810F90DF91CF910895CF93DF931F92E8
:10255000CDB7DEB789838981882F90E00496880FF4
:10256000991F87559E4FFC01808191810F90DF91CB
:10257000CF910895CF93DF93CDB7DEB78091B501AA
:102580009091B601DF91CF910895CF93DF931F9281
:10259000CDB7DEB7898389810E944F298091CF0111
:1025A000482F8981882F90E09C01220F331F81E002
:1025B00090E002C0880F991F2A95E2F7842B809340
:1025C000CF0100000F90DF91CF910895CF93DF935B
:1025D0001F92CDB7DEB7898389810E9498298091A7
:1025E000CF01482F8981882F90E09C01220F331F53
:1025F00081E090E002C0880F991F2A95E2F780954C
:1026000084238093CF0100000F90DF91CF91089534
:10261000CF93DF931F92CDB7DEB789838091CF012F
:10262000482F8981882F90E0880F991F9C012F5F88
:102630003F4F81E090E002C0880F991F2A95E2F792
:10264000842B8093CF018981882F90E00B96880F8F
:10265000991F87559E4FFC01208131818981869584
:10266000882F90E087529E4FFC018081A901682F3E
:1026700089810E94611300000F90DF91CF9108952E
:10268000CF93DF931F92CDB7DEB789838091CF01BF
:10269000482F8981882F90E0880F991F9C012F5F18
:1026A0003F4F81E090E002C0880F991F2A95E2F722
:1026B000809584238093CF0100000F90DF91CF910C
:1026C0000895EF92FF920F931F93CF93DF93CDB7AF
:1026D000DEB72C970FB6F894DEBF0FBECDBF89874B
:1026E0006A875C874B878B859C85CC01A0E0B0E036
:1026F000072E7CE0880F991FAA1FBB1F7A95D1F780
:10270000702D2EE734E040E050E0BC01CD010E9486
:10271000D432DA01C9018D839E83AF83B8878A855D
:102720008130A9F420E038E040E050E08D819E81C6
:10273000AF81B88579018A01E81AF90A0A0B1B0BE7
:10274000D801C70189839A83AB83BC830BC08D8179
:102750009E81AF81B885985FAF4FBF4F89839A83C1
:10276000AB83BC8389819A81098521E040E060E0E8
:102770000E94BD2700002C960FB6F894DEBF0FBE56
:10278000CDBFDF91CF911F910F91FF90EF900895F2
:10279000CF93DF931F92CDB7DEB789838981882FCE
:1027A00090E00796880F991F87559E4FFC01808106
:1027B00091810F90DF91CF910895CF93DF9300D057
:1027C0001F92CDB7DEB789837B836A838981882F87
:1027D00090E00B96880F991F87559E4F2A813B8169
:1027E000FC013183208300000F900F900F90DF9148
:1027F000CF9108952F923F924F925F926F927F9266
:102800008F929F92AF92BF92CF92DF92EF92FF9200
:102810000F931F93CF93DF93CDB7DEB769970FB6B2
:10282000F894DEBF0FBECDBF8091CF018983809128
:10283000DC01282F30E08091DB01482F50E08091AF
:10284000DA01682F70E08091D901E82FF0E08981EA
:10285000882F90E080749927DC010A2EAB2F000CA2
:10286000AA1FBB0B000CAA1FBB1F8981882F90E0F9
:10287000807199278C0115950795159507951595E4
:102880000795159507958981882F90E08470992781
:102890007C01F594E794F594E7948981C82ED12CB6
:1028A000D98EC88E888C998C81E088229924898160
:1028B000881F8827881FC82ED12CDB82CA82898175
:1028C000882F90E0807299276C01D594C794D59495
:1028D000C794D594C794D594C794D594C794DD82F2
:1028E000CC828981882F90E0887099276C01D594DB
:1028F000C794D594C794D594C794DF82CE8289813A
:10290000882F90E0827099276C01D594C794D9865E
:10291000C8868091C5019091C6019B878A87C09027
:10292000C301D090C401DD86CC868091C101909115
:10293000C2019F878E87C090BF01D090C001D98A05
:10294000C88A8091CD019091CE019B8B8A8BC090DB
:10295000CB01D090CC01DD8ACC8A8091C9019091C5
:10296000CA019F8B8E8B2090C7013090C801409088
:10297000AF015090B0016090AD017090AE01A09099
:10298000AB01B090AC01C090A901D090AA01832FF7
:102990008F93822F8F93852F8F93842F8F93872FE1
:1029A0008F93862F8F938F2F8F938E2F8F938B2FB5
:1029B0008F938A2F8F93812F8F93802F8F938F2DBB
:1029C0008F938E2D8F93892D8F93882D8F938B814D
:1029D0008F938A818F938D818F938C818F938F8139
:1029E0008F938E818F9389858F9388858F938B8525
:1029F0008F938A858F938D858F938C858F938F8509
:102A00008F938E858F9389898F9388898F938B89F4
:102A10008F938A898F938D898F938C898F938F89D8
:102A20008F938E898F93832D8F93822D8F93852DF6
:102A30008F93842D8F93872D8F93862D8F938B2D3E
:102A40008F938A2D8F938D2D8F938C2D8F938FEE57
:102A50009AE0892F8F938FEE9AE08F930E942C211A
:102A60008DB79EB7C2960FB6F894DEBF0FBECDBF2E
:102A7000000069960FB6F894DEBF0FBECDBFDF91A0
:102A8000CF911F910F91FF90EF90DF90CF90BF906B
:102A9000AF909F908F907F906F905F904F903F90FE
:102AA0002F900895CF93DF93CDB7DEB781E0809369
:102AB000C70B0000DF91CF910895CF93DF93CDB77F
:102AC000DEB71092C70B0000DF91CF910895CF932E
:102AD000DF93CDB7DEB70E94E1290000DF91CF91EF
:102AE0000895CF93DF93CDB7DEB70E940D2A000083
:102AF000DF91CF910895CF93DF93CDB7DEB76EED21
:102B000071E08DED91E00E94E42A8091DD010E9448
:102B1000392B0000DF91CF9108950F931F93CF932E
:102B2000DF931F92CDB7DEB7898308E410E0898177
:102B3000482F50E086E490E0FC0120813181429FE3
:102B4000C001439F900D529F900D1124CC01A0E035
:102B5000B0E0BC01CD010E94232EDC01CB012AE0B4
:102B600037ED43E25CE3BC01CD010E94DA2EDC01CB
:102B7000CB01BC01CD010E94F42DDC01CB01F80199
:102B80009183808300000F90DF91CF911F910F916F
:102B90000895CF93DF93CDB7DEB787E390E027E3C7
:102BA00030E0F90120812760FC01208387E390E079
:102BB00027E330E0F9012081277FFC0120838DE2AB
:102BC00090E02DE230E0F90120812165FC012083B5
:102BD0000000DF91CF910895CF93DF931F92CDB77F
:102BE000DEB789838FE290E02981FC012083000019
:102BF0008EE290E0FC0180818823D4F78FE290E0A0
:102C0000FC0180810F90DF91CF910895CF93DF93E6
:102C1000CDB7DEB78FE290E02FEFFC0120830000FC
:102C20008EE290E0FC0180818823D4F78FE290E06F
:102C3000FC018081DF91CF910895CF93DF93CDB7D1
:102C4000DEB7A8970FB6F894DEBF0FBECDBF9FA327
:102C50008EA368A7198226C18FE290E02FEFFC01B6
:102C600020831A821B821C821D8203C180E090E0B7
:102C7000A0E8BFE38E839F83A887B9872BEA3AEA4F
:102C80004AE250E46E817F81888599850E94DA2E20
:102C9000DC01CB018A879B87AC87BD878E819F81B2
:102CA000A885B9859C01AD01BC01CD010E940A2D0A
:102CB000DC01CB018E879F87A88BB98B20E030E0A9
:102CC00040E85FE36A857B858C859D850E94762D33
:102CD00088231CF481E08A8BB2C020E03FEF4FE7ED
:102CE00057E46E857F85888999890E94D52E1816AC
:102CF0000CF07BC020E030E04AE754E46E817F8135
:102D0000888599850E947B2DDC01CB018B8B9C8B68
:102D1000AD8BBE8B20E030E04AEF54E46B897C89B8
:102D20008D899E890E94DA2EDC01CB018F8B988FD2
:102D3000A98FBA8F20E030E040E85FE36F89788D9B
:102D4000898D9A8D0E94762D88232CF481E090E065
:102D50009C8F8B8F3FC020E03FEF4FE757E46F8998
:102D6000788D898D9A8D0E94D52E18164CF520E00D
:102D700030E040E251E46B897C898D899E890E9414
:102D8000DA2EDC01CB01BC01CD010E94F42DDC0167
:102D9000CB019C8F8B8F0FC088EC90E09E8F8D8F26
:102DA0008D8D9E8D0197F1F79E8F8D8F8B8D9C8DD4
:102DB00001979C8F8B8F8B8D9C8D892B69F73FC0E2
:102DC0006F89788D898D9A8D0E94F42DDC01CB015D
:102DD0009C8F8B8F8B8D9C8D98A38F8F8F8D98A1BF
:102DE0000197F1F798A38F8F2AC020E030E04FE7DA
:102DF00053E46A857B858C859D850E94D52E1816A7
:102E0000ACF46E857F85888999890E94F42DDC0158
:102E1000CB019AA389A389A19AA19CA38BA38BA17F
:102E20009CA10197F1F79CA38BA30FC06A857B85BA
:102E30008C859D850E94F42DDC01CB018A8B8A89CB
:102E40008DA38DA18A95F1F78DA38A819B81AC8199
:102E5000BD810196A11DB11D8A839B83AC83BD8377
:102E60008A819B81AC81BD8181319742A105B105E9
:102E700040F48EE290E0FC01808188230CF0F6CED5
:102E800001C000008981882F90E02EA13FA1820F10
:102E9000931F2FE230E0F9012081FC01208389811A
:102EA0008F5F8983998188A5981708F4D5CE000093
:102EB000A8960FB6F894DEBF0FBECDBFDF91CF91BD
:102EC0000895CF93DF93CDB7DEB7A8970FB6F894E8
:102ED000DEBF0FBECDBF9FA38EA368A7198221C1FD
:102EE0008FE290E02981222F30E04EA15FA1240FD4
:102EF000351FF9012081FC0120831A821B821C826C
:102F00001D8203C180E090E0A0E8BFE38E839F8331
:102F1000A887B9872BEA3AEA4AE250E46E817F81BA
:102F2000888599850E94DA2EDC01CB018A879B87F0
:102F3000AC87BD878E819F81A885B9859C01AD0135
:102F4000BC01CD010E940A2DDC01CB018E879F8739
:102F5000A88BB98B20E030E040E85FE36A857B8591
:102F60008C859D850E94762D88231CF481E08A8BB8
:102F7000B2C020E03FEF4FE757E46E857F85888938
:102F800099890E94D52E18160CF07BC020E030E005
:102F90004AE754E46E817F81888599850E947B2D64
:102FA000DC01CB018B8B9C8BAD8BBE8B20E030E0AA
:102FB0004AEF54E46B897C898D899E890E94DA2EC0
:102FC000DC01CB018F8B988FA98FBA8F20E030E086
:102FD00040E85FE36F89788D898D9A8D0E94762D08
:102FE00088232CF481E090E09C8F8B8F3FC020E001
:102FF0003FEF4FE757E46F89788D898D9A8D0E9456
:10300000D52E18164CF520E030E040E251E46B89F3
:103010007C898D899E890E94DA2EDC01CB01BC015E
:10302000CD010E94F42DDC01CB019C8F8B8F0FC052
:1030300088EC90E09E8F8D8F8D8D9E8D0197F1F79E
:103040009E8F8D8F8B8D9C8D01979C8F8B8F8B8D01
:103050009C8D892B69F73FC06F89788D898D9A8DFA
:103060000E94F42DDC01CB019C8F8B8F8B8D9C8D6E
:1030700098A38F8F8F8D98A10197F1F798A38F8FC9
:103080002AC020E030E04FE753E46A857B858C85D9
:103090009D850E94D52E1816ACF46E857F85888993
:1030A00099890E94F42DDC01CB019AA389A389A1FF
:1030B0009AA19CA38BA38BA19CA10197F1F79CA340
:1030C0008BA30FC06A857B858C859D850E94F42D1E
:1030D000DC01CB018A8B8A898DA38DA18A95F1F7BA
:1030E0008DA38A819B81AC81BD810196A11DB11DFB
:1030F0008A839B83AC83BD838A819B81AC81BD81A4
:1031000081319742A105B10540F48EE290E0FC01C7
:10311000808188230CF0F6CE01C0000089818F5F8A
:103120008983998188A5981708F4DACE0000A896BB
:103130000FB6F894DEBF0FBECDBFDF91CF910895DB
:10314000CF93DF93CDB7DEB783E590E023E530E0A2
:10315000F90120812460FC01208387E590E027E5C8
:1031600030E0F90120812260FC0120837894000086
:10317000DF91CF910895CF93DF93CDB7DEB783E58D
:1031800090E023E530E0F90120812860FC012083F4
:1031900082E590E0FC01108281E590E02CE7FC01E3
:1031A00020830000DF91CF910895CF93DF93CDB7B7
:1031B000DEB784E790E024E9FC012083000084E787
:1031C00090E0FC018081882F90E080719927892B05
:1031D000B1F70000DF91CF910895CF93DF931F9255
:1031E000CDB7DEB789838981882331F084E790E009
:1031F00025ECFC01208305C084E790E025E8FC0174
:10320000208300000F90DF91CF910895CF93DF933B
:10321000CDB7DEB784E790E025ECFC012083109267
:10322000C80B0000DF91CF9108951F920F9200907C
:103230005F000F9211242F933F934F935F936F93EF
:103240007F938F939F93AF93BF93EF93FF93CF930E
:10325000DF93CDB7DEB781E790E0FC018081882F56
:1032600090E0887F9927092E000CAA0BBB0B40E049
:1032700050E028EF30E0841B950B2817390708F43D
:1032800019C18A5B9F4FFC010C94F63283E790E0F2
:103290002091C90BFC01208384E790E025E8FC0124
:1032A000208308C19091D80B8091D90B9817A0F476
:1032B00083E790E02091D80B31E0320F3093D80BA8
:1032C000222F30E02053344FF9012081FC0120836C
:1032D00081E00E94ED18EEC08091CA0B882319F09E
:1032E0000E94D518E7C081E08093CB0B84E790E083
:1032F00024EAFC0120831092C80BDCC080E280939A
:10330000F70B0E94D518D6C080E38093F70B0E947C
:10331000D518D0C088E38093F70B0E940619CAC065
:103320008091E20B91E0980F9093E20B882F90E050
:1033300023E730E0F90120818652944FFC0120837D
:103340009091E20B8091E30B981720F481E00E94AA
:10335000ED18B0C080E00E94ED18ACC08091E20B87
:1033600091E0980F9093E20B882F90E023E730E0F4
:10337000F90120818652944FFC0120838091CA0B71
:10338000882319F00E94D51895C081E08093CB0B5B
:1033900084E790E024EAFC0120831092C80B8AC0E5
:1033A0000E94D51887C083E08093C80B1092F60B5B
:1033B00081E00E94ED187EC08091F60B8830A0F469
:1033C0008091F60B91E0980F9093F60B882F90E088
:1033D00023E730E0F90120818251944FFC012083E2
:1033E00081E00E94ED1866C080E00E94ED1862C086
:1033F0000E9406198091F60B883040F48091F60BFC
:10340000882F90E08251944FFC0110822091CE0BC6
:103410003091CF0B8091F60B882F90E0BC018EEE9F
:103420009BE0F90109951092F60B44C080E00E94E0
:10343000ED1840C084E08093C80B1092EC0B109202
:10344000ED0B8091CC0B9091CD0BFC0109958091F7
:10345000ED0B882329F481E08093ED0B1092E40BAF
:1034600083E790E02091EC0B31E0320F3093EC0BCE
:10347000222F30E02C51344FF9012081FC012083B0
:103480009091EC0B8091ED0B981720F481E00E9455
:10349000ED1810C080E00E94ED180CC081E00E9481
:1034A000ED181092C80B06C01092F70B0E94D518A9
:1034B00001C000000000DF91CF91FF91EF91BF911B
:1034C000AF919F918F917F916F915F914F913F91BC
:1034D0002F910F9000925F000F901F901895CF933F
:1034E000DF93CDB7DEB7F89481E0DF91CF910895F7
:1034F000CF93DF9300D0CDB7DEB79A8389838FE572
:1035000090E029813A81F9012081FC0120830000AB
:103510000F900F90DF91CF910895CF93DF9300D05C
:1035200000D0CDB7DEB79C838B838FE590E0FC01A4
:1035300080818A830E946F1A898313C08B819C814A
:1035400080589F4FFC0110828B819C818F579F4F29
:10355000FC0110828B819C818E579F4FFC01108251
:1035600019828981882351F7CE0102960E94781A28
:1035700000000F900F900F900F90DF91CF91089562
:10358000CF93DF9300D0CDB7DEB79A83898389814B
:103590009A818E579F4FFC01908181E0903809F00D
:1035A00080E00F900F90DF91CF910895CF93DF933C
:1035B00000D0CDB7DEB79A83898389819A818E57EF
:1035C0009F4FFC01908181E0992309F080E00F90EA
:1035D0000F90DF91CF910895CF93DF9300D000D06B
:1035E0001F92CDB7DEB78B837D836C832C813D81A9
:1035F0008C819D8180589F4FFC018081882F90E0B5
:10360000820F931F2B81FC0120838FE590E0FC014A
:1036100080818A830E946F1A89831EC08C819D815C
:1036200080589F4FFC0180818F5F282F2F778C81DE
:103630009D8180589F4FFC0120838C819D818E57F6
:103640009F4FFC01808121E0280F8C819D818E5746
:103650009F4FFC012083198289818823F9F6CE01CE
:1036600002960E94781A00000F900F900F900F9012
:103670000F90DF91CF910895CF93DF9300D000D0CA
:103680001F92CDB7DEB79D838C832C813D818C81C9
:103690009D818F579F4FFC018081882F90E0820F82
:1036A000931FFC0180818A838FE590E0FC0180817B
:1036B0008B830E946F1A89831EC08C819D818F57D6
:1036C0009F4FFC0180818F5F282F2F778C819D81F8
:1036D0008F579F4FFC0120838C819D818E579F4F78
:1036E000FC0180812FEF280F8C819D818E579F4F89
:1036F000FC012083198289818823F9F6CE01039683
:103700000E94781A8A810F900F900F900F900F905F
:10371000DF91CF910895CF93DF93CDB7DEB780913E
:10372000E3019091E4018D579F4F0E948D1A809183
:10373000E3019091E4010E948D1A80E990E0FC0180
:10374000108289E290E027E6FC0120838AE290E083
:103750002AE230E0F90120812869FC01208385E913
:1037600090E025E930E0F90120812660FC0120830A
:103770008BE290E02BE230E0F90120812260FC0135
:10378000208378940000DF91CF910895CF93DF9349
:103790001F92CDB7DEB7898300008091E30190913D
:1037A000E4018D579F4F0E94C01A8823B1F7809182
:1037B000E3019091E4018D579F4FBC0189810E94E4
:1037C000EC1A8AE290E02AE230E0F90120812062DE
:1037D000FC01208300000F90DF91CF910895CF93DB
:1037E000DF9300D0CDB7DEB79A8389830BC0898180
:1037F0009A819C012F5F3F4F3A832983FC0180818E
:103800000E94C61B89819A81FC018081882379F7F7
:1038100000000F900F90DF91CF910895CF93DF9329
:1038200000D000D0CDB7DEB79B838A836C8319822A
:103830000EC08A819B819C012F5F3F4F3B832A836F
:10384000FC0180810E94C61B89818F5F89839981D9
:103850008C81981770F300000F900F900F900F90CD
:10386000DF91CF910895CF93DF9300D000D000D0A7
:10387000CDB7DEB79E838D8303C08C810E94C61BAB
:103880008D819E819C012F5F3F4F3E832D839A83C4
:10389000898389819A81FC0184918B838B818C83BC
:1038A0008C81882351F7000026960FB6F894DEBF6E
:1038B0000FBECDBFDF91CF910895CF93DF93CDB7EA
:1038C000DEB78091E3019091E401DF91CF910895FB
:1038D0001F920F9200905F000F9211242F933F933D
:1038E0004F935F936F937F938F939F93AF93BF9308
:1038F000EF93FF93CF93DF931F92CDB7DEB78CE2A8
:1039000090E0FC01808189838091E3019091E40142
:103910000E94C01A982F81E089278823D1F08091D6
:10392000E3019091E401BC0189810E94EC1A80912D
:10393000E3019091E4012BE230E0F9012081222F94
:1039400030E02C7133278A5F9E4FFC013183208346
:1039500012C08091E3019091E4012BE230E0F90183
:103960002081222F30E02C71332721608A5F9E4F07
:10397000FC013183208300000F90DF91CF91FF91F4
:10398000EF91BF91AF919F918F917F916F915F91D7
:103990004F913F912F910F9000925F000F901F90D9
:1039A00018951F920F9200905F000F9211240F93B1
:1039B0001F932F933F934F935F936F937F938F93B7
:1039C0009F93AF93BF93EF93FF93CF93DF93CDB7C5
:1039D000DEB78091E3019091E4018D579F4F0E94E3
:1039E000D61A982F81E08927882369F00CE210E02D
:1039F0008091E3019091E4018D579F4F0E943C1B01
:103A0000F801808309C08AE290E02AE230E0F901FF
:103A100020812F7DFC0120830000DF91CF91FF9159
:103A2000EF91BF91AF919F918F917F916F915F9136
:103A30004F913F912F911F910F910F9000925F0036
:103A40000F901F9018951F920F9200905F000F9299
:103A500011242F933F934F935F936F937F938F9393
:103A60009F93AF93BF93EF93FF93CF93DF931F92F7
:103A7000CDB7DEB78CE990E0FC018081898380912D
:103A8000E5019091E6010E94C01A982F81E08927F4
:103A90008823D1F08091E5019091E601BC018981F4
:103AA0000E94EC1A8091E5019091E6012BE930E04B
:103AB000F9012081222F30E02C7133278A5F9E4F3D
:103AC000FC013183208312C08091E5019091E601D1
:103AD0002BE930E0F9012081222F30E02C713327CF
:103AE00031608A5F9E4FFC013183208300000F907C
:103AF000DF91CF91FF91EF91BF91AF919F918F9106
:103B00007F916F915F914F913F912F910F90009214
:103B10005F000F901F9018951F920F9200905F000A
:103B20000F9211240F931F932F933F934F935F9303
:103B30006F937F938F939F93AF93BF93EF93FF9375
:103B4000CF93DF93CDB7DEB78091E5019091E60189
:103B50008D579F4F0E94D61A982F81E0892788237E
:103B600069F00CE910E08091E5019091E6018D5734
:103B70009F4F0E943C1BF801808309C08AE990E0B6
:103B80002AE930E0F90120812F7DFC01208300002B
:103B9000DF91CF91FF91EF91BF91AF919F918F9165
:103BA0007F916F915F914F913F912F911F910F9155
:103BB0000F9000925F000F901F901895CF92DF92A8
:103BC000EF92FF920F931F93CF93DF93CDB7DEB7A2
:103BD000AF970FB6F894DEBF0FBECDBF9DA78CA7E1
:103BE0007FA76EA722C31C821D821E821F820BC06C
:103BF0008C819D81AE81BF810196A11DB11D8C83F9
:103C00009D83AE83BF838C819D81AE81BF819C01EA
:103C10008CA59DA5820F931FFC018081853269F0E0
:103C20008C819D81AE81BF819C018CA59DA5820F59
:103C3000931FFC0180818823D9F68C819D81AE8100
:103C4000BF81282F8CA59DA5622F0E940E1C8C8100
:103C50009D81AE81BF819C018CA59DA5820F931F84
:103C60009DA78CA78CA59DA5FC018081853209F0BC
:103C7000DCC28CA59DA501969DA78CA7188A198AE0
:103C80001A8A1B8A80E289838CA59DA59C012F5FDF
:103C90003F4F3DA72CA7FC018081082E000C990BFB
:103CA000092E000CAA0BBB0B45E250E023E530E0E7
:103CB000841B950B2817390708F4B1C2815C9E4F0D
:103CC000FC010C94F6328CA59DA50197FC01808126
:103CD000803351F488899989AA89BB89892B8A2BD9
:103CE0008B2B11F480E3898388899989AA89BB8900
:103CF000880F991FAA1FBB1F9C01AD01220F331F04
:103D0000441F551F220F331F441F551F820F931F3F
:103D1000A41FB51F888B998BAA8BBB8B8CA59DA5E7
:103D20000197FC018081082E000C990BC0979C0123
:103D3000990F440B550B88899989AA89BB89820FF1
:103D4000931FA41FB51F888B998BAA8BBB8B9CCF0D
:103D50008EA59FA59C012C5F3F4F3FA72EA7FC017E
:103D600080819181A281B38188879987AA87BB8747
:103D7000CE01089661E00E940E1C57C28EA59FA539
:103D80009C012E5F3F4F3FA72EA7FC0180819181B0
:103D9000CC01A0E0B0E088879987AA87BB871C8602
:103DA0001D861E861F8688859985AA85BB85BB23AF
:103DB000C4F488859985AA85BB85B095A095909512
:103DC00081959F4FAF4FBF4F88879987AA87BB8741
:103DD00081E090E0A0E0B0E0888F998FAA8FBB8F40
:103DE00004C0188E198E1A8E1B8E8AE090E0A0E017
:103DF000B0E08C8B9D8BAE8BBF8BB1C08EA59FA589
:103E00009C012E5F3F4F3FA72EA7FC01808191812F
:103E10009B838A831C821D821E821F820BC08C8121
:103E20009D81AE81BF810196A11DB11D8C839D83B3
:103E3000AE83BF838C819D81AE81BF819C018A81CD
:103E40009B81820F931FFC018081882341F78C8125
:103E50009D81AE81BF81282F8A819B81622F0E9424
:103E60000E1C288939894A895B898C819D81AE81A4
:103E7000BF8182179307A407B50708F0D6C18C81CC
:103E80009D81AE81BF81288939894A895B89790101
:103E90008A01E81AF90A0A0B1B0BD801C701888BA3
:103EA000998BAA8BBB8B05C061E089E59BE00E94E2
:103EB0000E1C88899989AA89BB899C01AD01215072
:103EC000310941095109288B398B4A8B5B8B892B2E
:103ED0008A2B8B2B49F7A9C18EA59FA59C012E5F2C
:103EE0003F4F3FA72EA7FC0180819181CC01A0E02C
:103EF000B0E088879987AA87BB871C861D861E86A7
:103F00001F868AE090E0A0E0B0E08C8B9D8BAE8BAA
:103F1000BF8B188E198E1A8E1B8E21C08EA59FA561
:103F20009C012E5F3F4F3FA72EA7FC01808191810E
:103F3000CC01A0E0B0E088879987AA87BB871C8660
:103F40001D861E861F8680E190E0A0E0B0E08C8B8D
:103F50009D8BAE8BBF8B188E198E1A8E1B8E81E0B7
:103F600090E0A0E0B0E08C839D83AE83BF831DC052
:103F70002C893D894E895F898C819D81AE81BF816D
:103F8000BC01CD010E94C432DC01CB018C839D8336
:103F9000AE83BF8388899989AA89BB890197A109C2
:103FA000B109888B998BAA8BBB8B2C813D814E816B
:103FB0005F818C899D89AE89BF89BC01CD010E943A
:103FC000C4329B01AC0188859985AA85BB8582177F
:103FD0009307A407B50720F12C813D814E815F81B5
:103FE0008C899D89AE89BF89BC01CD010E94C432F4
:103FF000DC01CB012C893D894E895F89BC01CD0153
:104000000E94D432DA01C9019C01AD018C819D81ED
:10401000AE81BF81281739074A075B0709F4A8CF8B
:10402000888D998DAA8DBB8D892B8A2B8B2B59F06E
:1040300088899989AA89BB890197A109B109888BC7
:10404000998BAA8BBB8B888D998DAA8DBB8D892B63
:104050008A2B8B2BE9F089818033D1F48C859D8567
:10406000AE85BF859C01AD012F5F3F4F4F4F5F4F26
:104070002C873D874E875F879E01245E3F4F820FCE
:10408000931F2DE2FC012083188E198E1A8E1B8E31
:1040900088899989AA89BB890297A105B105E8F1A8
:1040A00088899989AA89BB894097A105B105A8F596
:1040B00088899989AA89BB890197A109B109888B47
:1040C000998BAA8BBB8B21C08C859D85AE85BF85C6
:1040D0009C01AD012F5F3F4F4F4F5F4F2C873D87B6
:1040E0004E875F879E01245E3F4F820F931F298179
:1040F000FC01208388899989AA89BB890197A10934
:10410000B109888B998BAA8BBB8B88899989AA89DD
:10411000BB89892B8A2B8B2BB9F6888D998DAA8D1B
:10412000BB8D892B8A2B8B2B09F45EC08C859D85DA
:10413000AE85BF859C01AD012F5F3F4F4F4F5F4F55
:104140002C873D874E875F879E01245E3F4F820FFD
:10415000931F2DE2FC01208347C0EC84FD840E8573
:104160001F85D801C7010196A11DB11D8C879D87B0
:10417000AE87BF870F2EF8E4CF2EFBE0DF2EF02DA9
:1041800088859985AA85BB852C813D814E815F817B
:10419000BC01CD010E94D432DA01C9012C893D89CC
:1041A0004E895F89BC01CD010E94D432DC01CB0174
:1041B0008C0D9D1DFC012081CE014C968E0D9F1D06
:1041C000FC0120832C893D894E895F898C819D81EA
:1041D000AE81BF81BC01CD010E94D432DA01C90198
:1041E0008C839D83AE83BF838C819D81AE81BF8193
:1041F000892B8A2B8B2B09F0B0CF8C859D85AE85C2
:10420000BF85282FCE014C96622F0E940E1C0DC038
:104210008CA59DA5019761E00E940E1C06C065E07B
:104220008BE59BE00E940E1C00008CA59DA5FC0167
:104230008081882309F0D7CC0000AF960FB6F894A0
:10424000DEBF0FBECDBFDF91CF911F910F91FF90C9
:10425000EF90DF90CF900895CF93DF9300D0CDB74C
:10426000DEB7CE0109969A83898329813A818F81AD
:104270009885B9010E94DE1D00000F900F90DF911C
:10428000CF910895CF93DF93CDB7DEB78091EF0E36
:104290009091F00EA091F10EB091F20EBC01CD0103
:1042A0000E94ED2DDC01CB01DF91CF910895CF93DA
:1042B000DF93CDB7DEB787E390E027E330E0F90185
:1042C00020812160FC0120830E94C9150E946C217D
:1042D0000000DF91CF910895CF93DF93CDB7DEB784
:1042E000AE970FB6F894DEBF0FBECDBF0E94A425D7
:1042F00080E090E0A8E4B2E489839A83AB83BC8336
:1043000020E030E04AE753E469817A818B819C8127
:104310000E94DA2EDC01CB018D839E83AF83B887A8
:1043200020E030E040E85FE36D817E818F819885F9
:104330000E94762D88232CF481E090E09A8789876B
:104340003FC020E03FEF4FE757E46D817E818F81D2
:1043500098850E94D52E18164CF520E030E040E2FA
:1043600051E469817A818B819C810E94DA2EDC0183
:10437000CB01BC01CD010E94F42DDC01CB019A8759
:1043800089870FC089E190E09C878B878B859C850E
:104390000197F1F79C878B8789859A8501979A8782
:1043A000898789859A85892B69F714C06D817E81FB
:1043B0008F8198850E94F42DDC01CB019A87898733
:1043C00089859A859E878D878D859E850197F1F7D2
:1043D0009E878D871FA218A619A61AA61BA61CA623
:1043E0001DA61EA61F86188A198A1A8A1B8A88E0AB
:1043F0008C8B1D8A1E8A1F8A188E198E1A8E1B8E10
:104400001C8E1D8E1E8E1F8E18A219A21AA21BA210
:1044100088E08CA31DA21EA20E948225982F81E015
:104420008927882311F080E056C0CE018796AC0121
:1044300063E280E20E943D26CE018B96AC0167E2EA
:1044400084E20E943D26CE010F96AC0163E080E03D
:104450000E943D26CE014396AC0167E084E00E94B5
:104460003D26CE014796AC016BE088E00E943D26D8
:10447000CE014B96AC0163E180E10E943D26CE0166
:104480004F96AC0167E184E10E943D26CE01839600
:10449000AC016BE188E10E943D2664E080E60E9469
:1044A000152661E080E70E94152660E08AE20E94FE
:1044B000152661ED89E20E94152661E888E20E94D6
:1044C00015260E946125982F81E08927882311F005
:1044D00080E001C081E0AE960FB6F894DEBF0FBE5B
:1044E000CDBFDF91CF910895CF93DF9300D01F927E
:1044F000CDB7DEB79B838A8319821092430F109247
:10450000440F1092450F1092460F0E9493268093FD
:10451000420F8091420F8470882331F58A819B81FC
:10452000FC0140818A819B81FC0181819281A38170
:10453000B48123E43FE0BC01CD010E94AD248A8117
:104540009B819C012A5F3F4F8A819B81FC01858171
:10455000482F63E47FE080E40E94D82681E80E942F
:10456000732681E0898355C08091420F8071882332
:1045700031F58A819B81FC0140818A819B81FC010C
:1045800081819281A381B48123E43FE0BC01CD010C
:104590000E94AD248A819B819C012A5F3F4F8A81C2
:1045A0009B81FC018581482F63E47FE082E40E94C7
:1045B000D82682E80E94732681E089832AC08091F0
:1045C000420F8074882329F58A819B81FC014081F8
:1045D0008A819B81FC0181819281A381B48123E442
:1045E0003FE0BC01CD010E94AD248A819B819C01EA
:1045F0002A5F3F4F8A819B81FC018581482F63E4BC
:104600007FE084E40E94D82684E80E94732681E03B
:10461000898389810F900F900F90DF91CF9108953A
:10462000CF93DF93CDB7DEB761970FB6F894DEBFB7
:104630000FBECDBF998B888B19820E94B6268F87BB
:104640008F85807C882309F480C08F85807C91E0F1
:10465000803409F090E08F85282F207C81E0203C79
:1046600009F080E0892B882341F0CE0102964DE0CD
:10467000BC0180E90E94E9250BC08F85807C8038D1
:1046800039F4CE0102964DE0BC0184E90E94E9258F
:104690008F8588718031B9F48889998922E0FC017D
:1046A00020832B813A819D818C81432F692F0E9429
:1046B000AF23DC01CB0128893989F90181839283F9
:1046C000A383B48313C08889998921E0FC012083E6
:1046D0009B818A81692F0E946124DC01CB0128899A
:1046E0003989F90181839283A383B4832E818889D8
:1046F0009989FC0125832F8188899989FC0126836A
:10470000288588899989FC01278329858889998941
:10471000FC0120872A8588899989FC0121872B85BE
:1047200088899989FC0122872C8588899989FC01CF
:1047300023872D8588899989FC0124872E8588897E
:104740009989FC01258781E08983898161960FB66B
:10475000F894DEBF0FBECDBFDF91CF910895CF9308
:10476000DF93CDB7DEB72E970FB6F894DEBF0FBE3E
:10477000CDBF8B876C874D872E8719821A821B824B
:104780001C821D821E821F8218868E8583708987F7
:104790008E858295869587708A878D85882F90E093
:1047A000880F991F880F991F880F991F092E000CD9
:1047B000AA0BBB0B8D839E83AF83B8878A85882F16
:1047C00090E0A0E0B0E02D813E814F815885820FBE
:1047D000931FA41FB51F8D839E83AF83B8878D81E0
:1047E0009E81AF81B885880F991FAA1FBB1F880FB4
:1047F000991FAA1FBB1F8D839E83AF83B8878985AE
:10480000882F90E0A0E0B0E02D813E814F81588557
:10481000820F931FA41FB51F8D839E83AF83B8871C
:104820008D819E81AF81B885BA2FA92F982F8827B7
:104830008D839E83AF83B8878B85882F90E0A0E01F
:10484000B0E02D813E814F815885820F931FA41FB8
:10485000B51F8D839E83AF83B8878D819E81AF8185
:10486000B885BA2FA92F982F88278D839E83AF8371
:10487000B8878C85882F90E0A0E0B0E02D813E8144
:104880004F815885820F931FA41FB51F8D839E8370
:10489000AF83B8878D819E81AF81B88589839A83E4
:1048A000AB83BC8389819A81AB81BC81BC01CD0182
:1048B0002E960FB6F894DEBF0FBECDBFDF91CF911D
:1048C0000895CF93DF93CDB7DEB72A970FB6F8944C
:1048D000DEBF0FBECDBF89876A8719821A821B820D
:1048E0001C828985882F90E0880F991F880F991F57
:1048F000880F991F092E000CAA0BBB0B8D839E837A
:10490000AF83B8878A85829586958770882F90E0D7
:10491000A0E0B0E02D813E814F815885820F931F2A
:10492000A41FB51F8D839E83AF83B8878D819E8121
:10493000AF81B88589839A83AB83BC8389819A814F
:10494000AB81BC81BC01CD012A960FB6F894DEBFC5
:104950000FBECDBFDF91CF910895CF93DF93CDB739
:10496000DEB728970FB6F894DEBF0FBECDBF6A83BF
:104970007B838C839D834E8338872F8319828E811E
:10498000823009F05AC02A818F819885FC012383E7
:104990008A819B81AC81BD81892F9A2FAB2FBB2748
:1049A0008A839B83AC83BD832A818F819885FC0198
:1049B00022838A819B81AC81BD81892F9A2FAB2F65
:1049C000BB278A839B83AC83BD838A818370898361
:1049D0008A819B81AC81BD81880F991FAA1FBB1F53
:1049E000880F991FAA1FBB1F880F991FAA1FBB1FE3
:1049F0008A839B83AC83BD838A81807E9981890F62
:104A000089838981885F89838981282F2B7E8F8183
:104A10009885FC0121838A819B81AC81BD81892F8E
:104A20009A2FAB2FBB278A839B83AC83BD832A81BC
:104A30008F819885FC0120833AC08F819885FC0185
:104A400012828F819885FC0113828A819B81AC81BF
:104A5000BD81880F991FAA1FBB1F880F991FAA1F0E
:104A6000BB1F880F991FAA1FBB1F880F991FAA1F62
:104A7000BB1F880F991FAA1FBB1F8A839B83AC8310
:104A8000BD832A818F819885FC0121838A819B8146
:104A9000AC81BD81892F9A2FAB2FBB278A839B8343
:104AA000AC83BD832A818F819885FC01208300001F
:104AB00028960FB6F894DEBF0FBECDBFDF91CF9121
:104AC0000895CF93DF931F92CDB7DEB760E08FE0FC
:104AD0000E9415268AE089838EE00E94C125882FD6
:104AE00090E0807E9927892B11F481E007C08981AD
:104AF000815089838981882379F780E00F90DF9145
:104B0000CF910895CF93DF931F92CDB7DEB760E8C2
:104B10008FE00E9415268AE089838EE00E94C125DD
:104B2000882F90E0807E99278038910511F481E0EC
:104B300007C08981815089838981882371F780E04A
:104B40000F90DF91CF910895CF93DF93CDB7DEB76C
:104B500088E390E028E330E0F90120812E7FFC011A
:104B6000208380EC0E94EC1588E390E028E330E09D
:104B7000F90120812160FC0120830000DF91CF91A9
:104B80000895CF93DF9300D0CDB7DEB78A8388E353
:104B900090E028E330E0F90120812E7FFC012083A2
:104BA00083E00E94EC158A810E94EC1580E00E944F
:104BB000EC15898388E390E028E330E0F901208157
:104BC0002160FC01208389810F900F90DF91CF91AC
:104BD0000895CF93DF9300D000D0CDB7DEB789839F
:104BE0007B836A834C8388E390E028E330E0F9011B
:104BF00020812E7FFC01208389810E94EC158A810F
:104C00009B816C810E941D1688E390E028E330E0D0
:104C1000F90120812160FC01208300000F900F909A
:104C20000F900F90DF91CF910895CF93DF9300D035
:104C3000CDB7DEB789836A8388E390E028E330E06C
:104C4000F90120812E7FFC01208382E00E94EC1577
:104C500089810E94EC158A810E94EC1588E390E01E
:104C600028E330E0F90120812160FC01208300006D
:104C70000F900F90DF91CF910895CF93DF9300D0E5
:104C800000D0CDB7DEB789836A835C834B8388E32A
:104C900090E028E330E0F90120812E7FFC012083A1
:104CA00082E00E94EC1589810E94EC159A8189812D
:104CB000F92FF81B8F2F21E0280F8B819C81622F09
:104CC0000E94611788E390E028E330E0F901208139
:104CD0002160FC01208300000F900F900F900F9037
:104CE000DF91CF910895CF93DF931F92CDB7DEB7B9
:104CF000898388E390E028E330E0F90120812E7F6A
:104D0000FC01208389810E94EC1588E390E028E370
:104D100030E0F90120812160FC01208300000F9028
:104D2000DF91CF910895CF93DF931F92CDB7DEB778
:104D300088E390E028E330E0F90120812E7FFC0138
:104D4000208380EA0E94EC1580E00E94EC158983A4
:104D500088E390E028E330E0F90120812160FC0144
:104D6000208389810F90DF91CF910895CF93DF93B6
:104D70001F92CDB7DEB788E390E028E330E0F90179
:104D800020812E7FFC01208380EB0E94EC150E9485
:104D90000616898388E390E028E330E0F90120815A
:104DA0002160FC01208389810F90DF91CF910895CC
:104DB000CF93DF9300D000D000D0CDB7DEB789838A
:104DC0007B836A834C833E832D8388E390E028E3D2
:104DD00030E0F90120812E7FFC01208389810E942F
:104DE000EC158A819B8164E00E9461178C810E948E
:104DF000EC158D819E816C810E94611788E390E0A3
:104E000028E330E0F90120812160FC0120830000CB
:104E100026960FB6F894DEBF0FBECDBFDF91CF91BF
:104E20000895CF93DF931F92CDB7DEB78983898131
:104E3000882F90E081309105B1F0823091051CF40B
:104E4000892B39F02EC082309105B9F00397F9F023
:104E500028C088E390E028E330E0F90120812F7E2C
:104E6000FC0120831EC082E390E022E330E0F901E0
:104E700020812F7BFC01208314C085E390E025E393
:104E800030E0F90120812F7EFC0120830AC085E3F8
:104E900090E025E330E0F90120812F7DFC012083A3
:104EA000000000000F90DF91CF910895CF93DF9322
:104EB0001F92CDB7DEB789838981882F90E081303A
:104EC0009105B1F0823091051CF4892B39F02EC088
:104ED00082309105B9F00397F9F028C088E390E09B
:104EE00028E330E0F90120812061FC0120831EC00D
:104EF00082E390E022E330E0F90120812064FC01AC
:104F0000208314C085E390E025E330E0F90120819F
:104F10002061FC0120830AC085E390E025E330E0B6
:104F2000F90120812062FC012083000000000F9025
:104F3000DF91CF910895CF93DF93CDB7DEB782E3B2
:104F400090E022E330E0F90120812F77FC012083FB
:104F50000000DF91CF910895CF93DF93CDB7DEB7F7
:104F600082E390E022E330E0F90120812068FC0137
:104F700020830000DF91CF9108950F93CF93DF93AB
:104F8000CDB7DEB72E970FB6F894DEBF0FBECDBFFC
:104F90009A8789876B874C872D870E878E8584300B
:104FA00010F081E0ABC08E850E9411278E85882F7E
:104FB00090E029853A853F70880F991FAE014F5FB9
:104FC0005F4F840F951FFC012083232F2F70FC015E
:104FD0003181307F232BFC0121838B85882381F055
:104FE0008E85882F90E0880F991F9E012F5F3F4F7D
:104FF000820F931FFC0121812F7EFC0121830FC0B2
:105000008E85882F90E0880F991F9E012F5F3F4F5C
:10501000820F931FFC0121812061FC0121838C857B
:10502000882381F08E85882F90E0880F991F9E013C
:105030002F5F3F4F820F931FFC0121812F7DFC01C9
:1050400021830FC08E85882F90E0880F991F9E01C5
:105050002F5F3F4F820F931FFC0121812062FC01D3
:1050600021838E85882F90E02D85422F4170880FF7
:10507000991F9E012F5F3F4F820F931F242F217096
:105080002295220F220F207CFC0131813F7B232BB4
:10509000FC0121838E85882F90E0880F991F9E0147
:1050A0002F5F3F4F820F931FFC0121812F77FC015F
:1050B00021838E85882F90E0880F991F9E012F5F96
:1050C0003F4F820F931F0196FC0180810E94EC15D7
:1050D0008E85882F90E0880F991F9E012F5F3F4F8C
:1050E000820F931FFC0180810E94EC158E850E9427
:1050F00056270E949B270E94AC2780E02E960FB671
:10510000F894DEBF0FBECDBFDF91CF910F91089510
:10511000CF93DF9300D000D0CDB7DEB79B838A83D7
:105120006C8388E390E028E330E0F90120812F7759
:10513000FC01208387E390E027E330E0F901208140
:105140002068FC012083F89432C088E390E0FC01E1
:10515000808189838981282F2F778981382F306832
:105160008A819B81FC010190008009D0029007D0C8
:1051700001900190019003D0019001D015C008D09A
:1051800007D006D005D004D003D002D001D00895B6
:10519000001C3093380010F020933800000000000D
:1051A00010F4209338000895CF019B838A838C816B
:1051B0009FEF980F9C83882309F0C7CF7894000055
:1051C0000F900F900F900F90DF91CF910895CF9394
:1051D000DF9300D000D01F92CDB7DEB78A836B83F8
:1051E0004C832D838A818093470F8B818093480F56
:1051F0008C818093490F8D8180934A0F19822DC035
:105200008981882F90E09C01220F331F220F331FCA
:105210002C5A334F4A81F90140839C01220F331FDE
:10522000220F331F2B5A334F4B81F90140839C01CE
:10523000220F331F220F331F2A5A334F4C81F9019B
:105240004083880F991F880F991F895A934F2D818A
:10525000FC01208389818F5F898389818A3080F274
:105260006AE084E59CE00E94882800000F900F907F
:105270000F900F900F90DF91CF910895CF93DF9310
:10528000CDB7DEB78091470F9091480FA091490F9D
:10529000B0914A0FBC01CD01DF91CF910895CF931A
:1052A000DF931F92CDB7DEB789838981882F90E085
:1052B00081309105B9F0823091051CF4892B39F0C9
:1052C00032C082309105C9F0039711F12CC085E6F8
:1052D00090E025E630E0F90120812160FC01208387
:1052E00080E022C08BE390E02BE330E0F9012081E5
:1052F0002068FC01208380E017C08BE390E02BE363
:1053000030E0F90120812061FC01208380E00CC0A5
:1053100085E390E025E330E0F90120812064FC0181
:10532000208380E001C081E00F90DF91CF9108954C
:10533000CF93DF931F92CDB7DEB789838981882F02
:1053400090E081309105B9F0823091051CF4892BF1
:1053500039F032C082309105C9F0039711F12CC0A9
:1053600085E690E025E630E0F90120812E7FFC0102
:10537000208380E022C08BE390E02BE330E0F90152
:1053800020812F77FC01208380E017C08BE390E021
:105390002BE330E0F90120812F7EFC01208380E0A7
:1053A0000CC085E390E025E330E0F90120812F7BFC
:1053B000FC01208380E001C081E00F90DF91CF915C
:1053C0000895CF93DF93CDB7DEB782E290E022E27B
:1053D00030E0F90120812460FC01208382E290E02A
:1053E00022E230E0F90120812F7BFC01208383E25F
:1053F00090E023E230E0F90120812064FC01208369
:1054000083E290E023E230E0F90120812B7FFC0170
:1054100020830000DF91CF910895CF93DF93CDB724
:10542000DEB783E290E023E230E0F90120812460DE
:10543000FC01208383E290E023E230E0F901208147
:105440002B7FFC0120830000DF91CF910895CF9343
:10545000DF93CDB7DEB710924C0F10924B0F109226
:10546000340C1092530C4CE350E060E070E088EF95
:105470009BE00E944E344EE150E060E070E085E336
:105480009CE00E944E3448E050E060E070E08DE423
:105490009FE00E944E340E94BB180000DF91CF9124
:1054A0000895CF93DF9300D000D01F92CDB7DEB721
:1054B00089834A835B836C837D838981823060F436
:1054C0008981882F90E02A813B81880F991F835B17
:1054D000904FFC013183208300000F900F900F90BC
:1054E0000F900F90DF91CF910895CF93DF931F928C
:1054F000CDB7DEB789838981882F90E0880F991F07
:10550000835B904FFC018081918121E0892B09F020
:1055100020E0822F0F90DF91CF910895CF93DF93FA
:10552000CDB7DEB727970FB6F894DEBF0FBECDBF5D
:105530009D838C837F836E8381E089838C819D81B1
:10554000892BC1F18E819F81892BA1F18091340C2F
:10555000893080F58091340C282F30E0C901880F04
:10556000991F820F931F880F991F8850944F9B8318
:105570008A838A819B812E813F81FC01358324832C
:105580008A819B81FC0111828A819B81FC011382AB
:1055900012828A819B8121E0FC0120832091340CBE
:1055A0008C819D81FC0120838091340C8F5F8093DE
:1055B000340C1982898127960FB6F894DEBF0FBE8E
:1055C000CDBFDF91CF910895CF93DF93CDB7DEB7F5
:1055D00027970FB6F894DEBF0FBECDBF9D838C8397
:1055E0007F836E8381E089838C819D81892BB9F1D2
:1055F0008E819F81892B99F18091530C843078F5AD
:105600008091530C282F30E0C901880F991F820F19
:10561000931F880F991F8B5C934F9B838A838A818A
:105620009B812E813F81FC01358324838A819B816C
:10563000FC0110828A819B81FC0111828A819B81FD
:10564000FC01138212822091530C8C819D81FC01FC
:1056500020838091530C8F5F8093530C1982898132
:1056600027960FB6F894DEBF0FBECDBFDF91CF9166
:105670000895CF93DF9300D000D0CDB7DEB78C83F1
:1056800081E089838091530C9C819817C8F48C81A8
:10569000282F30E0C901880F991F820F931F880FB0
:1056A000991F8B5C934F9B838A838A819B81FC012A
:1056B000138212828A819B8121E0FC01208319825E
:1056C00089810F900F900F900F90DF91CF910895E7
:1056D000CF93DF9300D000D000D0CDB7DEB780915C
:1056E0004B0F90914C0F019690934C0F80934B0F62
:1056F000198247C08981282F30E0C901880F991F7E
:10570000820F931F880F991F8850944F9C838B831F
:105710008B819C81FC0184819581FC018081813099
:1057200069F58B819C81FC018081813039F58B8109
:105730009C81FC01828193819C012F5F3F4F8B8173
:105740009C81FC01338322838B819C81FC0122811B
:1057500033818B819C81FC0184819581FC01828154
:1057600093812817390750F08B819C81FC011382AB
:1057700012828B819C8121E0FC01218389818F5FD2
:1057800089838091340C9981981708F4B3CF1A82D9
:105790004EC08A81282F30E0C901880F991F820FDF
:1057A000931F880F991F8B5C934F9E838D838D81F0
:1057B0009E81FC0180818130B9F58D819E81FC0143
:1057C000828193819C012F5F3F4F8D819E81FC01DF
:1057D000338322838D819E81FC01228133818D81DF
:1057E0009E81FC0184819581FC0181819281281731
:1057F0003907D0F08D819E8121E0FC0121838D81CC
:105800009E81FC01138212828D819E81FC01848124
:105810009581FC01908181E0923009F080E0282F91
:105820008D819E81FC0120838A818F5F8A83809194
:10583000530C9A81981708F4ACCF1A8223C08A813E
:10584000882F90E0880F991F835B904FFC01808127
:105850009181892BA1F08A81882F90E09C01220FF1
:10586000331F235B304FF9012081318121503109F1
:10587000880F991F835B904FFC01318320838A81BD
:105880008F5F8A838A818230D0F2000026960FB61D
:10589000F894DEBF0FBECDBFDF91CF910895CF93B7
:1058A000DF93CDB7DEB70E94A0180000DF91CF9143
:1058B0000895CF93DF9300D000D000D0CDB7DEB7EE
:1058C000198235C08981282F30E0C901880F991FBE
:1058D000820F931F880F991F8850944F9C838B834E
:1058E0008B819C81FC0181818130F1F48B819C81D1
:1058F000FC0180818130C1F48B819C81FC0111828B
:105900008B819C81FC0184819581FC01848195813E
:10591000892B51F08B819C81FC0184819581FC0154
:1059200084819581FC01099589818F5F89838091AC
:10593000340C9981981730F21A822FC08A81282F4F
:1059400030E0C901880F991F820F931F880F991F9C
:105950008B5C934F9E838D838D819E81FC01818121
:105960008130C1F48D819E81FC0111828D819E81E7
:10597000FC0184819581FC0183819481892B51F004
:105980008D819E81FC0184819581FC0183819481BC
:10599000FC0109958A818F5F8A838091530C9A81DB
:1059A000981760F2000026960FB6F894DEBF0FBE7F
:1059B000CDBFDF91CF9108951F920F9200905F00AD
:1059C0000F9211242F933F934F935F936F937F9385
:1059D0008F939F93AF93BF93EF93FF93CF93DF93F7
:1059E000CDB7DEB70E94682B0000DF91CF91FF9109
:1059F000EF91BF91AF919F918F917F916F915F9147
:105A00004F913F912F910F9000925F000F901F9048
:105A100018955058BB27AA270E94212D0C949B2E25
:105A20000E948D2E38F00E94942E20F039F49F3F72
:105A300019F426F40C948A2E0EF4E095E7FB0C94EE
:105A4000842EE92F0E94AC2E58F3BA176207730711
:105A50008407950720F079F4A6F50C94CE2E0EF469
:105A6000E0950B2EBA2FA02D0B01B90190010C016E
:105A7000CA01A0011124FF27591B99F0593F50F486
:105A8000503E68F11A16F040A22F232F342F4427DE
:105A9000585FF3CF469537952795A795F0405395D6
:105AA000C9F77EF41F16BA0B620B730B840BBAF0A6
:105AB0009150A1F0FF0FBB1F661F771F881FC2F711
:105AC0000EC0BA0F621F731F841F48F48795779525
:105AD0006795B795F7959E3F08F0B0CF9395880FDF
